S01500006C6F636B65725F73797374656D2E737265638B
S11300000C942A000C9447000C9447000C9447006D
S11300100C9447000C9447000C9447000C94470040
S11300200C9447000C9447000C9447000C94470030
S11300300C9447000C9447000C9447000C94470020
S11300400C9447000C9447000C9447000C94470010
S11300500C94470011241FBECFE5D8E0DEBFCDBF0E
S113006010E0A0E6B0E0E4E8FAE002C005900D92EA
S1130070A63BB107D9F720E0A6EBB0E001C01D9282
S1130080A63CB207E1F70E94E6040C9440050C94E8
S11300900000E199FECF9FBB8EBB4DBB8CB3846047
S11300A08CBB8CB382608CBB0895E199FECF9FBB5F
S11300B08EBB8CB381608CBB6DB370E080E090E04C
S11300C0089580EF84BB8FEF85BB089585B38F7E41
S11300D085BB85B3806285BB85B3806485BB85B3EE
S11300E0806885BB989B5CC0999B5CC09A9B5CC0F4
S11300F09B9B5CC08FE19EE40197F1F700C0000078
S113010085B3806185BB85B38F7D85BB85B38064F2
S113011085BB85B3806885BB989B4AC0999B4AC0C0
S11301209A9B4AC09B9B4AC08FE19EE40197F1F7DA
S113013000C0000085B3806185BB85B3806285BB48
S113014085B38F7B85BB85B3806885BB989B38C09E
S1130150999B38C09A9B38C09B9B38C08FE19EE422
S11301600197F1F700C0000085B3806185BB85B3BA
S1130170806285BB85B3806485BB85B38F7785BB7F
S1130180989B26C0999B26C09A9B26C09B9B26C001
S11301908FE19EE40197F1F700C000008FEF08950E
S11301A087E3089588E3089589E308958FE2089525
S11301B084E3089585E3089586E308958AE2089523
S11301C081E3089582E3089583E308958DE2089519
S11301D083E6089580E308958DE308958BE20895FE
S11301E09BB394609BBB882324F49BB390689BBB14
S11301F003C09BB39F779BBB86FF04C09BB39064F3
S11302009BBB03C09BB39F7B9BBB85FF04C09BB37D
S113021090629BBB03C09BB39F7D9BBB84FF04C0C8
S11302209BB390619BBB03C09BB39F7E9BBB9BB363
S113023098609BBBEFE9FFE03197F1F700C0000045
S11302409BB3977F9BBBEFE9FFE03197F1F700C0C9
S1130250000083FF04C09BB390689BBB03C09BB3A7
S11302609F779BBB82FF04C09BB390649BBB03C07E
S11302709BB39F7B9BBB81FF04C09BB390629BBBE2
S113028003C09BB39F7D9BBB80FF04C08BB3806185
S11302908BBB03C08BB38F7E8BBB8BB388608BBB54
S11302A08FE99FE00197F1F700C000008BB3877FCF
S11302B08BBBEFE9FFE03197F1F700C00000089530
S11302C0CF93DF93EC0103C00E94F0002196888154
S11302D08111FACFDF91CF9108959BB39B7F9BBB94
S11302E0882324F49BB390689BBB03C09BB39F7784
S11302F09BBB86FF04C09BB390649BBB03C09BB3B2
S11303009F7B9BBB85FF04C09BB390629BBB03C0D8
S11303109BB39F7D9BBB84FF04C09BB390619BBB3D
S113032003C09BB39F7E9BBB9BB398609BBBEFE9D1
S1130330FFE03197F1F700C000009BB3977F9BBBB0
S1130340EFE9FFE03197F1F700C0000083FF04C03C
S11303509BB390689BBB03C09BB39F779BBB82FFFF
S113036004C09BB390649BBB03C09BB39F7B9BBBAC
S113037081FF04C09BB390629BBB03C09BB39F7D72
S11303809BBB80FF04C08BB380618BBB03C08BB36A
S11303908F7E8BBB8BB388608BBB8FE99FE001970B
S11303A0F1F700C000008BB3877F8BBBEFE9FFE060
S11303B03197F1F700C0000008958AB38C6F8ABBAF
S11303C083E00E946D018FE79EE30197F1F700C07F
S11303D0000083E00E946D018FE79EE30197F1F72F
S11303E000C0000083E00E946D018FE79EE3019747
S11303F0F1F700C0000082E00E946D0188E20E94D3
S11304006D0181E00E946D0186E00E946D018CE027
S11304100E946D019FEF29EF80E0915020408040C1
S1130420E1F700C0000008954F925F926F927F92AF
S11304308F929F92AF92BF92CF92DF92EF92FF92F0
S11304404B015C010F2EFAE0CF2ED12CE12CF12CC4
S1130450F02DA70196010E94FF0429013A01AB0186
S1130460BC0180E090E00E944900C301B201A701F1
S113047096010E94FF04AB01BC0181E090E00E9460
S11304804900C501B40124E630E040E050E00E9498
S1130490FF04CA01B901A70196010E94FF04AB0140
S11304A0BC0182E090E00E944900C501B40128EE3D
S11304B033E040E050E00E94FF04CA01B901A70103
S11304C096010E94FF04AB01BC0183E090E00E940E
S11304D04900FF90EF90DF90CF90BF90AF909F9036
S11304E08F907F906F905F904F900895CF92DF929E
S11304F0EF92FF9283E090E00E945500DC01CB0173
S1130500880F991FAA1FBB1F6C017D01CC0CDD1C39
S1130510EE1CFF1CCC0CDD1CEE1CFF1CC80ED91EEF
S1130520EA1EFB1E82E090E00E945500DC01CB0134
S11305308C0D9D1DAE1DBF1D880F991FAA1FBB1FCB
S11305406C017D01CC0CDD1CEE1CFF1CCC0CDD1CF5
S1130550EE1CFF1CC80ED91EEA1EFB1E81E090E0B3
S11305600E945500DC01CB018C0D9D1DAE1DBF1DED
S1130570880F991FAA1FBB1F6C017D01CC0CDD1CC9
S1130580EE1CFF1CCC0CDD1CEE1CFF1CC80ED91E7F
S1130590EA1EFB1E80E090E00E9455006C0D7D1D5C
S11305A08E1D9F1DFF90EF90DF90CF900895CF9206
S11305B0DF92EF92FF926B017C0184E690E00E944F
S11305C06001C092C200D092C300E092C400F092D5
S11305D0C500C701B6010E941402FF90EF90DF909E
S11305E0CF90089580E790E00E9460018091BA0066
S11305F09091BB00A091BC00B091BD008093B60067
S11306009093B700A093B800B093B90008958CE715
S113061090E00E9460011092C2001092C3001092F8
S1130620C4001092C50060E070E0CB010E94140287
S113063008950F931F930091C2001091C30020915D
S1130640C4003091C5000617170728073907A9F415
S11306508091600090916100A0916200B09163006C
S11306608093B6009093B700A093B800B093B900FC
S113067089E890E00E94600104C087E990E00E944C
S113068060011F910F9108958F929F92AF92BF9234
S1130690CF92DF92EF92FF920F931F93CF93DF934A
S11306A0CDB7DEB72C970FB6F894DEBF0FBECDBF23
S11306B01092BE001092BF001092C0001092C100B0
S11306C0812C912C54010E946600C82E880FDD08ED
S11306D0EE08FF0807C00E946600C82E880FDD08D8
S11306E0EE08FF080FEFC016D006E006F00699F3F7
S11306F013E6C116D104E104F10439F481E00E9447
S11307006D01812C912C5401DECF0E9466008F3F35
S1130710E1F78AE20E94F0008DE3C816D104E104F7
S1130720F10409F43FC00AE2C016D104E104F10463
S113073091F481149104A104B10469F4E1E0F0E0BE
S1130740EC0FFD1FE80DF91DC0821FEF811A910AFD
S1130750A10AB10A27C0D701C6018F97A109B1091F
S11307600B97A105B10568F4E1E0F0E0EC0FFD1F83
S1130770E80DF91DC0828FEF881A980AA80AB80AF2
S11307800AC081E00E946D0181EA90E00E9460014C
S1130790812C912C54010AE080169104A104B10427
S11307A009F091CF8092BE009092BF00A092C00049
S11307B0B092C10081E00E946D018091BE009091D1
S11307C0BF00A091C000B091C1000697A105B1057A
S11307D009F041C089818F32F1F58E818F32D9F5CC
S11307E030C0DC01CB01880F991FAA1FBB1F6C010D
S11307F07D01CC0CDD1CEE1CFF1CCC0CDD1CEE1CA6
S1130800FF1CAC01BD014C0D5D1D6E1D7F1DE1E0A3
S1130810F0E0EC0FFD1FE20FF31F8081082E000CA7
S1130820990BC097092E000CAA0BBB0B7C018D0100
S1130830E40EF51E061F171FC801B7012F5F3F4FB7
S113084005C021E030E060E070E0CB0125303105E7
S113085044F20E94D7020AE080169104A104B10474
S113086079F54091B6005091B7006091B80070914D
S1130870B9008091600090916100A0916200B091F4
S11308806300481759076A077B07D1F40DC0E1E0FC
S1130890F0E0EC0FFD1FE80FF11D87FDFA95908144
S11308A0903339F48F5F01C080E08A3084F381E0B3
S11308B001C080E0813009F076C00E94070373C054
S11308C0C090BE00D090BF00E090C000F090C10086
S11308D011E0C116D104E104F10431F489818A32B2
S11308E019F40E94F2025FC084E0C816D104E10446
S11308F0F10409F058C04091B6005091B7006091DE
S1130900B8007091B9008091BA009091BB00A09199
S1130910BC00B091BD00481759076A077B0709F06E
S113092042C030C0DC01CB01880F991FAA1FBB1F36
S11309304C015D01880C991CAA1CBB1C880C991CD9
S1130940AA1CBB1CAC01BD01480D591D6A1D7B1DB1
S1130950E1E0F0E0EC0FFD1FE20FF31F8081082EB1
S1130960000C990BC097092E000CAA0BBB0B4C0171
S11309705D01840E951EA61EB71EC501B4012F5F2E
S11309803F4F05C020E030E060E070E0CB0149015A
S1130990032E000CAA08BB088C149D04AE04BF04EB
S11309A00CF20E9419032C960FB6F894DEBF0FBE0A
S11309B0CDBFDF91CF911F910F91FF90EF90DF900A
S11309C0CF90BF90AF909F908F9008950E94DD01CB
S11309D00E9461001092B6001092B7001092B80005
S11309E01092B9000E9476026093C2007093C30013
S11309F08093C4009093C5000E944403FDCF052E4C
S1130A0097FB1EF400940E94160557FD07D00E9420
S1130A101E0507FC03D04EF40C9416055095409522
S1130A20309521953F4F4F4F5F4F08959095809596
S1130A30709561957F4F8F4F9F4F0895A1E21A2EB5
S1130A40AA1BBB1BFD010DC0AA1FBB1FEE1FFF1F6E
S1130A50A217B307E407F50720F0A21BB30BE40BBE
S1130A60F50B661F771F881F991F1A9469F7609505
S1130A707095809590959B01AC01BD01CF010895BF
S1070A80F894FFCF14
S1130A84010000006368616E67696E672E2E2E0094
S1130A94636C6F73696E672E2E2E2E0072657365F8
S1130AA474696E672E2E2E2E006C6F636B65722034
S1130AB46F70656E65640054727920616761696E54
S1130AC4006F6E6C792064696769747320616C6C5F
S1090AD46F776564000069
S9030000FC
